:100000000C9434000C9446000C9446000C9446006A
:100010000C9446000C9446000C9446000C94460048
:100020000C9446000C9446000C9446000C9450002E
:100030000C9446000C9446000C9446000C94460028
:100040000C9446000C9446000C9446000C94460018
:100050000C9446000C9446000C9446000C94460008
:100060000C9446000C94460011241FBECFEFD8E03C
:10007000DEBFCDBF21E0A0E0B1E001C01D92A43001
:10008000B207E1F70E9434010C9454010C94000073
:1000900080E380930101809302018093030108951E
:1000A0001F920F920FB60F9211242F933F934F93ED
:1000B0005F936F937F938F939F93AF93BF93EF93D0
:1000C000FF93809100018130C9F0809101018F5F21
:1000D000809301018A3394F0109201018091020112
:1000E0008F5F809302018A334CF0809103018F5F10
:1000F00080930301863011F40E944800FF91EF9134
:10010000BF91AF919F918F917F916F915F914F912F
:100110003F912F910F900FBE0F901F901895E1E81F
:10012000F0E0208128602083AFE6B0E02C912260CF
:100130002C939093890080938800808184608083D1
:1001400008958AB1806F8AB984B1836084B90895B3
:10015000ECE7F0E080811082808180648083EAE7B0
:10016000F0E08081108280818468808308959BB153
:100170009F709BB99BB1807F892B8BB92998299A55
:10018000299A29980895CF93C82F28980E94B700DC
:100190008C2F8295807F0E94B7008FE39FE10197AB
:1001A000F1F700C00000CF910895803110F480581D
:1001B00001C080550C94C3008FE59AEE0197F1F7CA
:1001C00000C00000289880E30E94B7008FE19EE401
:1001D0000197F1F700C0000080E30E94B7008FEDA7
:1001E00091E00197F1F700C0000080E30E94B700A2
:1001F00080E20E94B7008FE39FE10197F1F700C012
:10020000000088E20E94C3008FE00C94C300CF93EB
:10021000C82F289A0E94B7008C2F8295807F0E9459
:10022000B7008FE39FE10197F1F700C00000CF9185
:100230000895809103010E940701809102010E94AC
:1002400007018EE20E940701809101010C940701D1
:10025000CF93DF93EC018991882319F00E94070165
:10026000FACFDF91CF91089578940E94A1000E9467
:10027000A8000E94DC0088EA91E60E948F000E949C
:10028000480081E00E94C3000E94190180917A0019
:10029000806480937A0080917A0086FDFCCF809103
:0C02A000780090917900F2CFF894FFCF25
:00000001FF
