:100000000C9434000C9446000C9446000C9446006A
:100010000C9446000C9446000C9446000C94460048
:100020000C9446000C9446000C9446000C9450002E
:100030000C9446000C9446000C9446000C94460028
:100040000C9446000C9446000C9446000C94460018
:100050000C9446000C9446000C9446000C94460008
:100060000C9446000C94460011241FBECFEFD8E03C
:10007000DEBFCDBF21E0A0E0B1E001C01D92A43001
:10008000B207E1F70E943A010C9490010C94000031
:1000900080E380930101809302018093030108951E
:1000A0001F920F920FB60F9211242F933F934F93ED
:1000B0005F936F937F938F939F93AF93BF93EF93D0
:1000C000FF93809100018130E1F0809101018F5F09
:1000D000809301018A33ACF090E390930101809109
:1000E00002018F5F809302018A335CF090930201DA
:1000F000809103018F5F80930301863311F40E9486
:100100004800FF91EF91BF91AF919F918F917F91A7
:100110006F915F914F913F912F910F900FBE0F9074
:100120001F901895E1E8F0E0208128602083AFE679
:10013000B0E02C9122602C939093890080938800EA
:1001400080818460808308958AB1806F8AB984B188
:10015000836084B90895ECE7F0E0808110828081AB
:1001600080648083EAE7F0E0808110828081846887
:10017000808308959BB19F709BB99BB1807F892B31
:100180008BB92998299A299A29980895CF93C82F2D
:1001900028980E94BA008C2F8295807F0E94BA0016
:1001A0008FE39FE10197F1F700C00000CF91089520
:1001B000803110F4805801C080550C94C6008FE542
:1001C0009AEE0197F1F700C00000289880E30E94A2
:1001D000BA008FE19EE40197F1F700C0000080E3D0
:1001E0000E94BA008FED91E00197F1F700C0000086
:1001F00080E30E94BA0080E20E94BA008FE39FE190
:100200000197F1F700C0000088E20E94C6008FE06D
:100210000C94C600CF93C82F289A0E94BA008C2F46
:100220008295807F0E94BA008FE39FE10197F1F7EA
:1002300000C00000CF910895809103010E940A013F
:10024000809102010E940A018EE20E940A018091BF
:1002500001010E940A0180E80C94C600CF93DF934D
:10026000EC018991882319F00E940A01FACFDF91ED
:10027000CF91089581E08093000178940E94A400BA
:100280000E94AB000E94DF0088EA91E60E94920083
:100290000E94480081E00E94C6000E941C0183E089
:1002A000F82E92E0E92EDD24D39480917A008064C8
:1002B00080937A0080917A0086FDFCCFC09178000F
:1002C000D0917900CE0109968017910724F04297CA
:1002D00008171907DCF480910001C63891E0D907AE
:1002E00044F4823019F4D092000110C0E092000171
:1002F0000DC0C83592E0D9074CF4813019F40E9442
:10030000480004C0823091F7F09200018091000112
:100310008150823010F08E01C8CF0E941C01FBCFAB
:04032000F894FFCF7F
:00000001FF
