:100000000C9434000C9446000C9446000C9446006A
:100010000C9446000C9446000C9446000C94460048
:100020000C9446000C9446000C9446000C94EC0092
:100030000C9446000C9446000C9446000C94460028
:100040000C9446000C9446000C9446000C94460018
:100050000C9446000C9446000C9446000C94460008
:100060000C9446000C94460011241FBECFEFD8E03C
:10007000DEBFCDBF21E0A0E0B1E001C01D92A43001
:10008000B207E1F70E9440010C9498010C94000023
:1000900080E380930101809302018093030108951E
:1000A000E1E8F0E0208128602083AFE6B0E02C9109
:1000B00022602C93909389008093880080818460D3
:1000C000808308958AB1806F8AB984B1836084B9CE
:1000D0000895ECE7F0E08081108280818064808365
:1000E000EAE7F0E08081108280818468808308954F
:1000F0009BB19F709BB99BB1807F892B8BB929984D
:10010000299A299A29980895CF93C82F28980E9450
:1001100078008C2F8295807F0E9478008FE39FE18A
:100120000197F1F700C00000CF910895803110F4DD
:10013000805801C080550C9484008FE59AEE019799
:10014000F1F700C00000289880E30E9478008FE15A
:100150009EE40197F1F700C0000080E30E94780060
:100160008FED91E00197F1F700C0000080E30E945D
:10017000780080E20E9478008FE39FE10197F1F719
:1001800000C0000088E20E9484008FE00C9484008C
:10019000CF93C82F289A0E9478008C2F8295807F59
:1001A0000E9478008FE39FE10197F1F700C0000003
:1001B000CF910895809103010E94C80080910201AF
:1001C0000E94C8008EE20E94C800809101010E9436
:1001D000C80080E80C9484001F920F920FB60F9213
:1001E00011242F933F934F935F936F937F938F933C
:1001F0009F93AF93BF93EF93FF9380910001813062
:10020000E1F0809101018F5F809301018A33ACF0AE
:1002100090E390930101809102018F5F809302012E
:100220008A335CF090930201809103018F5F809389
:100230000301863311F40E9448008091000182304E
:1002400011F40E94DA00FF91EF91BF91AF919F915D
:100250008F917F916F915F914F913F912F910F906F
:100260000FBE0F901F901895CF93DF93EC018991EB
:10027000882319F00E94C800FACFDF91CF9108952A
:1002800081E08093000178940E9462000E946900DE
:100290000E949D0088E893E10E9450000E9448005F
:1002A00081E00E9484000E94DA0083E0F82E92E050
:1002B000E92EDD24D39480917A00806480937A00C3
:1002C00080917A0086FDFCCFC0917800D0917900B2
:1002D000CE0109968017910724F042970817190755
:1002E000FCF4C63881E0D80754F4809100018230D4
:1002F00019F4D092000114C0E092000111C0C83579
:1003000092E0D9076CF480910001813029F40E94B9
:1003100048000E94DA0004C0823071F7F0920001B8
:100320008FE39CE90197F1F700C000008E01C3CF75
:04033000F894FFCF6F
:00000001FF
